:100000000C9432000C944F000C944F000C944F0051
:100010000C944F000C944F000C944F000C944F0024
:100020000C944F000C944F000C944F000C94BF00A4
:100030000C944F000C944F000C944F000C944F0004
:100040000C944F000C944F000C944F000C944F00F4
:100050000C944F00636865636B6564006368656357
:100060006B65640011241FBECFE5D8E0DEBFCDBFB5
:1000700012E0A0E6B0E0EEE9F4E102C005900D92D6
:10008000AA32B107D9F724E0AAE2B2E001C01D927A
:10009000A633B207E1F70E9440010C944D0A0C947C
:1000A0000000CF93C82F8A3019F48DE00E945100D0
:1000B0005D9BFECFCCB980E090E0CF910895CF93C7
:1000C0005F9BFECFCCB1BC018C2F0E9451008C2FC6
:1000D00090E0CF91089589E683BFBB9A08955F9B16
:1000E00003C08CB15F99FDCF0895CF93DF93C0E338
:1000F000D4E06A817B818BE190E00E943F076A81B6
:100100007B818BE590E00E943F076A817B8188E4D8
:1001100090E00E943F076A817B818BE190E00E9422
:100120003F076A817B818BE590E00E943F076A81EF
:100130007B818AE490E00E943F07DF91CF91089590
:10014000CF93DF93C0E3D4E06A817B818BE190E0C1
:100150000E943F076A817B818BE590E00E943F0708
:100160006A817B8180E390E00E943F076A817B8106
:100170008DE690E00E943F07DF91CF9108951F9296
:100180000F920FB60F9211242F933F934F935F93CB
:100190006F937F938F939F93AF93BF93EF93FF934F
:1001A000809160008F5F80936000843108F455C0B7
:1001B000F89480912E04813031F580912F048111C3
:1001C00003C081E080932F0480912A0281110EC028
:1001D00080912F0482BB80912F04880F80932F047D
:1001E0008823F4F481E080932A021AC080912F04BE
:1001F00082BB80912F04869580932F04823080F4F7
:1002000010922A020DC080912A02811105C012BAF3
:1002100081E080932A0204C08FEF82BB10922A02F1
:1002200081E087B9369A3699FECF64B175B1072E51
:10023000000C880B990B0E949E062AE037ED43E2E2
:1002400051E40E94F4050E94660670932C026093AC
:100250002B0281E080936000789484E982BFFF9153
:10026000EF91BF91AF919F918F917F916F915F912E
:100270004F913F912F910F900FBE0F901F901895A7
:10028000CF93DF93CDB7DEB764970FB6F894DEBF98
:100290000FBECDBF0E946B008BE98CBF8FEF84BB7C
:1002A00081BB12BAE0E3F4E081E690E091838083C1
:1002B000938382830E94EA050E94A0000E94750039
:1002C0000E94A0000E9475000E946F0086E886B917
:1002D00080EB87BBC49A80E58DB9709A13BE85E028
:1002E00083BF84E982BF11E019BF78940E947F0226
:1002F00010922D0210922C0210922B0210932E04B9
:1003000010932F0410922A020F2EFEE7EF2EF0E03A
:10031000FF2EF02D0F2EF8E8CF2EF0E0DF2EF02D7F
:1003200083E094E00E946E02883109F4B9C028F499
:10033000882339F08731F9F0F3CF8A51843080F780
:10034000AFC044E650E061E080912D020E942C0491
:10035000882331F380912D020E946804811106C028
:1003600089EF90E00197F1F700C000008FE690E080
:100370000E949107D5CF0E949F058C01009781F2C2
:100380001F938F93FF92EF920E947B07A8016EE26A
:1003900072E080912D020E9439050F900F900F900E
:1003A0000F90892B09F4BCCF8EE292E09F938F933C
:1003B000DF92CF920E947B0765E970E08EE292E0C7
:1003C0000E94B3055C016BE970E08EE292E00E944E
:1003D000B3058C010F900F900F900F90BB2024F469
:1003E00099230CF066C057C082EA90E00E94910702
:1003F0001123BCF06EEA70E08EE292E00E94B30539
:100400001816190614F410922E0466EB70E08EE2B2
:1004100092E00E94B305181619061CF481E080933F
:100420002E04EEE2F2E001900020E9F73197AF01EF
:100430004E5252406EE272E080912D020E948C0476
:10044000892B09F46DCF80912E04813049F41982F3
:100450006CE570E0CE010B960E942A07A89A09C0AD
:1004600064E570E0CE0101960E942A071B8685B3E1
:1004700085BBEEE2F2E001900020E9F73197AF0191
:100480004E5252406EE272E080912D020E948C0426
:10049000892B09F445CF80912D020E941E0440CF84
:1004A00080912D020E9410048EEB90E00E94910733
:1004B00037CF82EA90E00E9491079CCFC49820EF4A
:1004C0002FB9779BFECF9FB9779BFECF8FB9779BD4
:1004D000FECF6FB9779BFECFC49A0895C4982FE0E2
:1004E0002FB9779BFECF9FB9779BFECF8FB9779BB4
:1004F000FECF1FB8779BFECFC49A8FB10895CF92DD
:10050000DF92EF92FF920F931F93CF93DF9360E8F8
:1005100080E090E00E945E0289EF90E00197F1F7A1
:1005200000C000001F9281E08F931F921AE01F937A
:100530001F92D8EADF931F92C0ECCF938CEC90E02F
:100540009F938F930E947B0760EC81E090E00E9474
:100550005E0268EA82E090E00E945E026AE083E068
:1005600090E00E945E0261E084E090E00E945E0202
:1005700089EF90E00197F1F700C0000084E090E07F
:100580000E946E02E82E83E090E00E946E02F82E38
:1005900082E090E00E946E02082F81E090E00E94CD
:1005A0006E021F92EF921F92FF921F920F931F9263
:1005B0008F9381EF90E09F938F930E947B071F9210
:1005C00086EF8F931F9288E58F931F928EED8F9306
:1005D0001F9286E38F931F9286E18F931F921F9243
:1005E0008CE091E09F938F930E947B078DB79EB71D
:1005F00082960FB6F8949EBF0FBE8DBF60E089E073
:1006000090E00E945E0266E18AE090E00E945E0255
:1006100066E38BE090E00E945E026EED8CE090E07D
:100620000E945E0268E58DE090E00E945E0266EF47
:100630008EE090E00E945E0289EF90E00197F1F772
:1006400000C000008EE090E00E946E02C82E8DE097
:1006500090E00E946E02D82E8CE090E00E946E0224
:10066000E82E8BE090E00E946E02F82E8AE090E087
:100670000E946E02082F89E090E00E946E021F9295
:10068000CF921F92DF921F92EF921F92FF921F92C2
:100690000F931F928F9382E491E09F938F930E9418
:1006A0007B071F921F921F928FEF8F931F928F9342
:1006B0001F928F938FE691E09F938F930E947B0709
:1006C0006FEF85E090E00E945E026FEF86E090E0C1
:1006D0000E945E026FEF87E090E00E945E0260E0A1
:1006E00088E090E00E945E0289EF90E00197F1F7C8
:1006F00000C0000088E090E00E946E02E82E87E0D3
:1007000090E00E946E02F82E86E090E00E946E0259
:10071000082F85E090E00E946E021F92EF921F92D8
:10072000FF921F920F931F928F9385E991E09F9301
:100730008F930E947B078DB79EB782960FB6F89471
:100740009EBF0FBE8DBF1F9280EA8F931F921F9393
:100750001F92DF931F92CF9381EB91E09F938F9332
:100760000E947B0760EC8FE090E00E945E0268EAE6
:1007700080E190E00E945E026AE081E190E00E94E8
:100780005E0260EA82E190E00E945E0289EF90E002
:100790000197F1F700C0000082E190E00E946E0234
:1007A000182F81E190E00E946E02D82F80E190E046
:1007B0000E946E02C82F8FE090E00E946E021F928E
:1007C0001F931F92DF931F92CF931F928F9381ED00
:1007D00091E09F938F930E947B078DEE91E00E94A2
:1007E000910765E58AE190E00E945E0265E58BE194
:1007F00090E00E945E028BE092E00E9491078DB72C
:100800009EB744960FB6F8949EBF0FBE8DBFDF9182
:10081000CF911F910F91FF90EF90DF90CF900895AF
:1008200081110BC060E181E094E00E945E0281E0F2
:1008300094E00E946E028111FACF089581110BC0DD
:1008400068E081E094E00E945E0281E094E00E9412
:100850006E028111FACF08951F93CF93DF93811118
:1008600030C0D52FC42F162F83E094E00E946E0273
:10087000811102C00E941004612F80E094E00E9468
:100880005E026D2F84E094E00E945E026C2F85E092
:1008900094E00E945E0261E081E094E00E945E02CA
:1008A00081E094E00E946E028111FACF83E094E02F
:1008B0000E946E02833139F080E00E94100480E0D3
:1008C00003C080E001C081E0DF91CF911F910895C6
:1008D00081111CC083E094E00E946E028331C1F458
:1008E00062E081E094E00E945E0281E094E00E9478
:1008F0006E028111FACF83E094E00E946E0284318F
:1009000049F080E00E94100480E0089580E008959E
:1009100080E0089581E00895AF92BF92CF92DF9278
:10092000EF92FF920F931F93CF93DF937B018A0186
:10093000452B09F45FC0811160C080E294E00E9401
:100940006E02C82FD0E0DC2FCC2781E294E00E9419
:100950006E02C80FD11DC017D10708F462C050C085
:1009600089EF90E00197F1F700C0000080E294E089
:100970000E946E0290E0D82FCC2781E294E00E9482
:100980006E02FE01E80FF11DCF01F1E0CF1AD10890
:1009900021F480E00E941E0460C08017910700F3DC
:1009A0002FC02197C6019770F70161917F01905C7C
:1009B0000E945E02FFEFCF1ADF0A209791F70A0D1F
:1009C0001B1D612F84E294E00E945E02602F85E28D
:1009D00094E00E945E0260E281E094E00E945E0288
:1009E00081E094E00E946E028111FACFCC24C3947E
:1009F000D12C33C0C12CD12C30C0C12CD12C2DC056
:100A000084E294E00E946E02A82E85E294E00E94A7
:100A10006E02B12CBA2CAA24A80EB11C6501E80103
:100A2000C0CF89EF90E00197F1F700C0000080E2AD
:100A300094E00E946E0290E0D82FCC2781E294E0EF
:100A40000E946E02FE01E80FF11DCF010F2EF9EE9C
:100A5000CF2EF3E0DF2EF02DA0CFC601DF91CF9196
:100A60001F910F91FF90EF90DF90CF90BF90AF90CC
:100A700008958F929F92AF92BF92CF92DF92EF92A2
:100A8000FF920F931F93CF93DF935B016A01411590
:100A9000510509F445C0811143C04130524070F105
:100AA0000F2EFEEFCF2EDD24D394F02D27C02197FB
:100AB000C4019770905A0E946E02F80181938F01D1
:100AC000FFEF8F1A9F0A209791F7EC0CFD1CF501A0
:100AD000EC0DFD1D10826F2D88E294E00E945E02F5
:100AE0006E2D89E294E00E945E0260E481E094E071
:100AF0000E945E0200C000C0000012C088E294E0C4
:100B00000E946E02E82E89E294E00E946E02F12CAF
:100B1000FE2CEE24E80EF11C4701E6018501C7CF4B
:100B200081E090E0DF91CF911F910F91FF90EF90C6
:100B3000DF90CF90BF90AF909F908F900895CF930C
:100B400086E294E00E946E02C82F87E294E00E9441
:100B50006E022C2F30E0322F2227A901480F511DA1
:100B6000CA01CF910895CF92DF92EF92FF920F9337
:100B70001F93CF93DF93FB0101900020E9F731979A
:100B80008F01061B170BFC0120812223C1F07B0182
:100B9000EC01C12CD12CA801B701CE010E94310774
:100BA000892B19F48C2D9D2D0CC0FFEFCF1ADF0A75
:100BB000219688818111EFCF8FEF9FEF02C08FEFD9
:100BC0009FEFDF91CF911F910F91FF90EF90DF90FA
:100BD000CF9008958AB188618AB980B5866880BD52
:100BE00087E689B910BC08950E9408060C94F006A7
:100BF0000E94E90658F00E94E20640F029F45F3FA7
:100C000029F00C94D90651110C9424070C94DF069A
:100C10000E94010768F39923B1F3552391F3951BC3
:100C2000550BBB27AA2762177307840738F09F5F0D
:100C30005F4F220F331F441FAA1FA9F335D00E2E7A
:100C40003AF0E0E832D091505040E695001CCAF7E7
:100C50002BD0FE2F29D0660F771F881FBB1F2617AA
:100C600037074807AB07B0E809F0BB0B802DBF0181
:100C7000FF2793585F4F3AF09E3F510578F00C9450
:100C8000D9060C9424075F3FE4F3983ED4F386958D
:100C900077956795B795F7959F5FC9F7880F911D71
:100CA0009695879597F90895E1E0660F771F881F5D
:100CB000BB1F621773078407BA0720F0621B730B10
:100CC000840BBA0BEE1F88F7E09508950E946D061D
:100CD0006894B1110C94240708950E94090788F0C4
:100CE0009F5798F0B92F9927B751B0F0E1F0660FF0
:100CF000771F881F991F1AF0BA95C9F714C0B13031
:100D000091F00E942307B1E008950C942307672F08
:100D1000782F8827B85F39F0B93FCCF3869577955F
:100D20006795B395D9F73EF4909580957095619548
:100D30007F4F8F4F9F4F0895E89409C097FB3EF473
:100D400090958095709561957F4F8F4F9F4F992318
:100D5000A9F0F92F96E9BB279395F6958795779596
:100D60006795B795F111F8CFFAF4BB0F11F460FF56
:100D70001BC06F5F7F4F8F4F9F4F16C0882311F0AE
:100D800096E911C0772321F09EE8872F762F05C0C2
:100D9000662371F096E8862F70E060E02AF09A955D
:100DA000660F771F881FDAF7880F9695879597F952
:100DB000089597F99F6780E870E060E008959FEFDD
:100DC00080EC089500240A941616170618060906E2
:100DD000089500240A9412161306140605060895B1
:100DE000092E0394000C11F4882352F0BB0F40F439
:100DF000BF2B11F460FF04C06F5F7F4F8F4F9F4F79
:100E0000089557FD9058440F551F59F05F3F71F0FA
:100E10004795880F97FB991F61F09F3F79F0879561
:100E20000895121613061406551FF2CF4695F1DFEA
:100E300008C0161617061806991FF1CF869571057A
:100E4000610508940895E894BB2766277727CB01AE
:100E500097F90895FB01DC0105900D920020E1F760
:100E60000895FB01DC014150504030F08D9101901C
:100E7000801919F40020B9F7881B990B08950F9376
:100E80001F93CF93DF93FB01238121FD03C08FEFDD
:100E90009FEF2CC022FF16C04681578124813581E7
:100EA0004217530744F4A081B1819D012F5F3F4F4A
:100EB000318320838C93268137812F5F3F4F378387
:100EC000268314C08B01EC01FB010084F185E02D29
:100ED0000995892BE1F6D80116968D919C9117976B
:100EE000019617969C938E931697CE01DF91CF9122
:100EF0001F910F910895A0E0B0E0E1E8F7E00C94B5
:100F0000260AAE014B5F5F4FFA0161917191AF010B
:100F100080913204909133040E94C107E2E00C9466
:100F2000420A0F931F93CF93DF93E0913204F09125
:100F30003304238121FF1BC08C01D0E0C0E0F80105
:100F400081918F016091320470913304DB01189616
:100F5000ED91FC911997882331F00995892B79F34C
:100F6000DFEFCFEFECCF8AE00995892B19F08FEFF7
:100F70009FEF02C08D2F9C2FDF91CF911F910F917A
:100F80000895ABE0B0E0E7ECF7E00C94160A6C01D2
:100F90007B018A01FC0117821682838181FFCCC10B
:100FA000CE0101963C01F6019381F70193FD8591F5
:100FB00093FF81917F01882309F4BAC1853239F406
:100FC00093FD859193FF81917F01853229F4B601CC
:100FD00090E00E943F07E7CF912C212C312CFFE1BC
:100FE000F315D8F08B3279F038F4803279F083320F
:100FF000A1F4232D20611DC08D3261F0803369F48E
:10100000232D216016C0832D8260382EE32DE460ED
:101010003E2E2AC0F32DF8601DC037FC2DC020EDF8
:10102000280F2A3040F08E32B9F436FC81C1232DCE
:101030002064322E19C036FE06C08AE0989E200D2C
:101040001124922E11C0EAE02E9E200D1124222E92
:10105000F32DF0623F2E08C08C3621F4832D80687A
:10106000382E02C0883641F4F70193FD859193FF35
:1010700081917F018111B3CF982F9F7D955493303B
:1010800028F40C5F1F4F9FE399830DC0833631F026
:10109000833771F0833509F059C021C0F801808190
:1010A00089830E5F1F4F88248394912C530113C0B2
:1010B0002801F2E04F0E511CF801A080B18036FEED
:1010C00003C0692D70E002C06FEF7FEFC5010E9481
:1010D000AD094C018201F32DFF773F2E16C0280188
:1010E00022E0420E511CF801A080B18036FE03C000
:1010F000692D70E002C06FEF7FEFC5010E94A20969
:101100004C01F32DF0683F2E820133FC1BC0822D71
:1011100090E088169906B0F4B60180E290E00E9453
:101120003F072A94F4CFF50137FC859137FE819172
:101130005F01B60190E00E943F0721102A9421E050
:10114000821A91088114910471F7E8C0843611F075
:10115000893641F5F80137FE07C0608171818281CF
:1011600093810C5F1F4F08C060817181072E000CB6
:10117000880B990B0E5F1F4FF32DFF763F2E97FFC5
:1011800009C090958095709561957F4F8F4F9F4FC7
:10119000F0683F2E2AE030E0A3010E94B809882EB3
:1011A000861845C0853731F4232D2F7EB22E2AE0D4
:1011B00030E025C0932D997FB92E8F36C1F018F4F9
:1011C000883579F0B5C0803719F0883721F0B0C084
:1011D000E92FE061BE2EB4FE0DC0FB2DF460BF2EE2
:1011E00009C034FE0AC0292F2660B22E06C028E0AE
:1011F00030E005C020E130E002C020E132E0F8013B
:10120000B7FE07C060817181828193810C5F1F4F9F
:1012100006C06081718180E090E00E5F1F4FA301E6
:101220000E94B809882E8618FB2DFF773F2E36FEC8
:101230000DC0232D2E7FA22E891458F434FE0BC02E
:1012400032FC09C0832D8E7EA82E05C0B82CA32C9D
:1012500003C0B82C01C0B92CA4FE0FC0FE01E80DDC
:10126000F11D8081803321F49A2D997EA92E09C029
:10127000A2FE06C0B394B39404C08A2D867809F008
:10128000B394A3FC11C0A0FE06C0B21488F4280CCD
:10129000922C9B180EC0B21460F4B60180E290E06C
:1012A0000E943F07B394F7CFB21418F42B1802C072
:1012B000982C212CA4FE10C0B60180E390E00E947F
:1012C0003F07A2FE17C0A1FC03C088E790E002C060
:1012D00088E590E0B6010CC08A2D867859F0A1FE11
:1012E00002C08BE201C080E2A7FC8DE2B60190E073
:1012F0000E943F07891438F4B60180E390E00E9411
:101300003F079A94F7CF8A94F301E80DF11D80818D
:10131000B60190E00E943F078110F5CF222009F42A
:1013200042CEB60180E290E00E943F072A94F6CFB9
:10133000F6018681978102C08FEF9FEF2B96E2E145
:101340000C94320AFC010590615070400110D8F7EE
:10135000809590958E0F9F1F0895FC0161507040FD
:1013600001900110D8F7809590958E0F9F1F0895DA
:10137000FA01AA27283051F1203181F1E8946F93C6
:101380006E7F6E5F7F4F8F4F9F4FAF4FB1E03ED06C
:10139000B4E03CD0670F781F891F9A1FA11D680F0A
:1013A000791F8A1F911DA11D6A0F711D811D911D3D
:1013B000A11D20D009F468943F912AE0269F1124B2
:1013C0003019305D3193DEF6CF010895462F477016
:1013D000405D4193B3E00FD0C9F7F6CF462F4F7071
:1013E000405D4A3318F0495D31FD4052419302D0CF
:1013F000A9F7EACFB4E0A695979587957795679575
:10140000BA95C9F700976105710508959B01AC0174
:101410000A2E06945795479537952795BA95C9F79B
:10142000620F731F841F951FA01D08952F923F9276
:101430004F925F926F927F928F929F92AF92BF92E4
:10144000CF92DF92EF92FF920F931F93CF93DF9390
:10145000CDB7DEB7CA1BDB0B0FB6F894DEBF0FBEED
:10146000CDBF09942A88398848885F846E847D843A
:101470008C849B84AA84B984C884DF80EE80FD803C
:101480000C811B81AA81B981CE0FD11D0FB6F894B2
:0E149000DEBF0FBECDBFED010895F894FFCF73
:10149E0001000000030000000051005F0000005337
:1014AE006F636B6574204C697374656E21005369AC
:1014BE007A653A2025640A00436F6E74656E743A3D
:1014CE000A25730A00474554202F00504F535420CD
:1014DE002F005265712E20436865636B2100726187
:1014EE0064696F3D3000726164696F3D3100536F06
:1014FE00636B657420436C6F736521005365747460
:10150E00696E672047617465776179204164647202
:10151E006573732025642E25642E25642E25640A9A
:10152E000052656164696E67204741523A20256416
:10153E002E25642E25642E25640A0A0053657474C4
:10154E00696E6720536F75726365204164647265BE
:10155E00737320252E32783A252E32783A252E3284
:10156E00783A252E32783A252E32783A252E327850
:10157E000A0052656164696E67205341523A202514
:10158E002E32783A252E32783A252E32783A252E7A
:10159E0032783A252E32783A252E32780A0A0053BE
:1015AE00657474696E6720537562204D61736B208C
:1015BE00416464726573732025642E25642E256440
:1015CE002E25640A0052656164696E672053554288
:1015DE00523A2025642E25642E25642E25640A0A8F
:1015EE000053657474696E672049502041646472BB
:1015FE006573732025642E25642E25642E25640ABA
:10160E000052656164696E6720534950523A202535
:10161E00642E25642E25642E25640A0A00536574F3
:10162E0074696E672057697A6E657420524D5352F5
:10163E0020616E6420544D53520A00446F6E652033
:10164E0057697A6E657420573531303020496E698E
:0A165E007469616C697A656421000B
:00000001FF
