S00E000042415349434C2E7372656368
S11300000C942A000C9434000C9434000C943400A6
S11300100C9434000C9434000C9434000C9434008C
S11300200C9434000C9434000C9434000C9434007C
S11300300C9434000C9434000C9434000C9434006C
S11300400C9434000C9434000C9434000C9434005C
S11300500C94340011241FBECFE5D8E0DEBFCDBF21
S11300600E9441000C9462000C94000089E683BF56
S1130070BB9A8F9A85B5886485BD85B5816285BD37
S113008008958FEF84BB0E943600A89A2FE38DE079
S113009093E0215080409040E1F700C0000085B318
S11300A08E6F85BB2FE38DE093E02150804090401C
S11300B0E1F700C0000086E98CBF82E883BD80E0E0
S10B00C090E00895F894FFCFCD
S9030000FC
